{
  "contractName": "SocialMedia",
  "abi": [
    {
      "constant": true,
      "inputs": [
        {
          "name": "",
          "type": "uint256"
        }
      ],
      "name": "users",
      "outputs": [
        {
          "name": "",
          "type": "address"
        }
      ],
      "payable": false,
      "stateMutability": "view",
      "type": "function"
    },
    {
      "constant": true,
      "inputs": [
        {
          "name": "",
          "type": "address"
        },
        {
          "name": "",
          "type": "uint256"
        }
      ],
      "name": "subscribedHashtags",
      "outputs": [
        {
          "name": "",
          "type": "bytes32"
        }
      ],
      "payable": false,
      "stateMutability": "view",
      "type": "function"
    },
    {
      "constant": true,
      "inputs": [
        {
          "name": "",
          "type": "uint256"
        }
      ],
      "name": "hashtags",
      "outputs": [
        {
          "name": "",
          "type": "bytes32"
        }
      ],
      "payable": false,
      "stateMutability": "view",
      "type": "function"
    },
    {
      "constant": true,
      "inputs": [
        {
          "name": "",
          "type": "uint256"
        }
      ],
      "name": "contentById",
      "outputs": [
        {
          "name": "id",
          "type": "uint256"
        },
        {
          "name": "author",
          "type": "address"
        },
        {
          "name": "date",
          "type": "uint256"
        },
        {
          "name": "content",
          "type": "string"
        }
      ],
      "payable": false,
      "stateMutability": "view",
      "type": "function"
    },
    {
      "constant": true,
      "inputs": [
        {
          "name": "",
          "type": "bytes32"
        }
      ],
      "name": "hashtagScore",
      "outputs": [
        {
          "name": "",
          "type": "uint256"
        }
      ],
      "payable": false,
      "stateMutability": "view",
      "type": "function"
    },
    {
      "constant": true,
      "inputs": [
        {
          "name": "",
          "type": "uint256"
        }
      ],
      "name": "contents",
      "outputs": [
        {
          "name": "id",
          "type": "uint256"
        },
        {
          "name": "author",
          "type": "address"
        },
        {
          "name": "date",
          "type": "uint256"
        },
        {
          "name": "content",
          "type": "string"
        }
      ],
      "payable": false,
      "stateMutability": "view",
      "type": "function"
    },
    {
      "constant": true,
      "inputs": [
        {
          "name": "",
          "type": "bytes32"
        }
      ],
      "name": "doesHashtagExist",
      "outputs": [
        {
          "name": "",
          "type": "bool"
        }
      ],
      "payable": false,
      "stateMutability": "view",
      "type": "function"
    },
    {
      "constant": true,
      "inputs": [
        {
          "name": "",
          "type": "bytes32"
        },
        {
          "name": "",
          "type": "uint256"
        }
      ],
      "name": "contentByHashtag",
      "outputs": [
        {
          "name": "id",
          "type": "uint256"
        },
        {
          "name": "author",
          "type": "address"
        },
        {
          "name": "date",
          "type": "uint256"
        },
        {
          "name": "content",
          "type": "string"
        }
      ],
      "payable": false,
      "stateMutability": "view",
      "type": "function"
    },
    {
      "constant": true,
      "inputs": [],
      "name": "latestContentId",
      "outputs": [
        {
          "name": "",
          "type": "uint256"
        }
      ],
      "payable": false,
      "stateMutability": "view",
      "type": "function"
    },
    {
      "constant": true,
      "inputs": [
        {
          "name": "",
          "type": "address"
        }
      ],
      "name": "doesUserExist",
      "outputs": [
        {
          "name": "",
          "type": "bool"
        }
      ],
      "payable": false,
      "stateMutability": "view",
      "type": "function"
    },
    {
      "anonymous": false,
      "inputs": [
        {
          "indexed": true,
          "name": "id",
          "type": "uint256"
        },
        {
          "indexed": true,
          "name": "author",
          "type": "address"
        },
        {
          "indexed": true,
          "name": "date",
          "type": "uint256"
        },
        {
          "indexed": false,
          "name": "content",
          "type": "string"
        },
        {
          "indexed": false,
          "name": "hashtags",
          "type": "bytes32[]"
        }
      ],
      "name": "ContentAdded",
      "type": "event"
    },
    {
      "constant": false,
      "inputs": [
        {
          "name": "_content",
          "type": "string"
        },
        {
          "name": "_hashtags",
          "type": "bytes32[]"
        }
      ],
      "name": "addContent",
      "outputs": [],
      "payable": false,
      "stateMutability": "nonpayable",
      "type": "function"
    },
    {
      "constant": false,
      "inputs": [
        {
          "name": "_hashtag",
          "type": "bytes32"
        }
      ],
      "name": "subscribeToHashtag",
      "outputs": [],
      "payable": false,
      "stateMutability": "nonpayable",
      "type": "function"
    },
    {
      "constant": false,
      "inputs": [
        {
          "name": "_hashtag",
          "type": "bytes32"
        }
      ],
      "name": "unsubscribeToHashtag",
      "outputs": [],
      "payable": false,
      "stateMutability": "nonpayable",
      "type": "function"
    },
    {
      "constant": true,
      "inputs": [
        {
          "name": "_amount",
          "type": "uint256"
        }
      ],
      "name": "getTopHashtags",
      "outputs": [
        {
          "name": "",
          "type": "bytes32[]"
        }
      ],
      "payable": false,
      "stateMutability": "view",
      "type": "function"
    },
    {
      "constant": true,
      "inputs": [],
      "name": "getFollowedHashtags",
      "outputs": [
        {
          "name": "",
          "type": "bytes32[]"
        }
      ],
      "payable": false,
      "stateMutability": "view",
      "type": "function"
    },
    {
      "constant": true,
      "inputs": [
        {
          "name": "_hashtag",
          "type": "bytes32"
        },
        {
          "name": "_amount",
          "type": "uint256"
        }
      ],
      "name": "getContentIdsByHashtag",
      "outputs": [
        {
          "name": "",
          "type": "uint256[]"
        }
      ],
      "payable": false,
      "stateMutability": "view",
      "type": "function"
    },
    {
      "constant": true,
      "inputs": [
        {
          "name": "_id",
          "type": "uint256"
        }
      ],
      "name": "getContentById",
      "outputs": [
        {
          "name": "",
          "type": "uint256"
        },
        {
          "name": "",
          "type": "address"
        },
        {
          "name": "",
          "type": "uint256"
        },
        {
          "name": "",
          "type": "string"
        },
        {
          "name": "",
          "type": "bytes32[]"
        }
      ],
      "payable": false,
      "stateMutability": "view",
      "type": "function"
    },
    {
      "constant": true,
      "inputs": [],
      "name": "sortHashtagsByScore",
      "outputs": [
        {
          "name": "",
          "type": "bytes32[]"
        }
      ],
      "payable": false,
      "stateMutability": "view",
      "type": "function"
    },
    {
      "constant": true,
      "inputs": [
        {
          "name": "_hashtag",
          "type": "bytes32"
        }
      ],
      "name": "checkExistingSubscription",
      "outputs": [
        {
          "name": "",
          "type": "bool"
        }
      ],
      "payable": false,
      "stateMutability": "view",
      "type": "function"
    }
  ],
  "bytecode": "0x608060405234801561001057600080fd5b50612347806100206000396000f3fe608060405234801561001057600080fd5b50600436106101215760003560e01c8063748ddeb0116100ad578063c389ef5e11610071578063c389ef5e146108da578063c5f520e114610939578063c8c804261461097f578063c9a9aed514610a71578063ecb4105414610a8f57610121565b8063748ddeb0146106af57806384688db1146106dd578063938430d514610723578063b3c11db6146107b0578063b5ecf912146107f257610121565b806341428f9d116100f457806341428f9d146103a95780634c7365f7146103d757806366181def1461052657806370f01a2814610585578063725ac19a146105c757610121565b806312b468b214610126578063365b98b2146102565780633c9a1a6e146102c457806340d65a8614610347575b600080fd5b6101526004803603602081101561013c57600080fd5b8101908080359060200190929190505050610aeb565b604051808681526020018573ffffffffffffffffffffffffffffffffffffffff1673ffffffffffffffffffffffffffffffffffffffff1681526020018481526020018060200180602001838103835285818151815260200191508051906020019080838360005b838110156101d45780820151818401526020810190506101b9565b50505050905090810190601f1680156102015780820380516001836020036101000a031916815260200191505b50838103825284818151815260200191508051906020019060200280838360005b8381101561023d578082015181840152602081019050610222565b5050505090500197505050505050505060405180910390f35b6102826004803603602081101561026c57600080fd5b8101908080359060200190929190505050610cb2565b604051808273ffffffffffffffffffffffffffffffffffffffff1673ffffffffffffffffffffffffffffffffffffffff16815260200191505060405180910390f35b6102f0600480360360208110156102da57600080fd5b8101908080359060200190929190505050610cee565b6040518080602001828103825283818151815260200191508051906020019060200280838360005b83811015610333578082015181840152602081019050610318565b505050509050019250505060405180910390f35b6103936004803603604081101561035d57600080fd5b81019080803573ffffffffffffffffffffffffffffffffffffffff16906020019092919080359060200190929190505050610e13565b6040518082815260200191505060405180910390f35b6103d5600480360360208110156103bf57600080fd5b8101908080359060200190929190505050610e41565b005b610524600480360360408110156103ed57600080fd5b810190808035906020019064010000000081111561040a57600080fd5b82018360208201111561041c57600080fd5b8035906020019184600183028401116401000000008311171561043e57600080fd5b91908080601f016020809104026020016040519081016040528093929190818152602001838380828437600081840152601f19601f820116905080830192505050505050509192919290803590602001906401000000008111156104a157600080fd5b8201836020820111156104b357600080fd5b803590602001918460208302840111640100000000831117156104d557600080fd5b919080806020026020016040519081016040528093929190818152602001838360200280828437600081840152601f19601f820116905080830192505050505050509192919290505050610efb565b005b61052e6117ca565b6040518080602001828103825283818151815260200191508051906020019060200280838360005b83811015610571578082015181840152602081019050610556565b505050509050019250505060405180910390f35b6105b16004803603602081101561059b57600080fd5b810190808035906020019092919050505061198b565b6040518082815260200191505060405180910390f35b6105f3600480360360208110156105dd57600080fd5b81019080803590602001909291905050506119ac565b604051808581526020018473ffffffffffffffffffffffffffffffffffffffff1673ffffffffffffffffffffffffffffffffffffffff16815260200183815260200180602001828103825283818151815260200191508051906020019080838360005b83811015610671578082015181840152602081019050610656565b50505050905090810190601f16801561069e5780820380516001836020036101000a031916815260200191505b509550505050505060405180910390f35b6106db600480360360208110156106c557600080fd5b8101908080359060200190929190505050611a94565b005b610709600480360360208110156106f357600080fd5b8101908080359060200190929190505050611cec565b604051808215151515815260200191505060405180910390f35b6107596004803603604081101561073957600080fd5b810190808035906020019092919080359060200190929190505050611dba565b6040518080602001828103825283818151815260200191508051906020019060200280838360005b8381101561079c578082015181840152602081019050610781565b505050509050019250505060405180910390f35b6107dc600480360360208110156107c657600080fd5b8101908080359060200190929190505050611e5d565b6040518082815260200191505060405180910390f35b61081e6004803603602081101561080857600080fd5b8101908080359060200190929190505050611e75565b604051808581526020018473ffffffffffffffffffffffffffffffffffffffff1673ffffffffffffffffffffffffffffffffffffffff16815260200183815260200180602001828103825283818151815260200191508051906020019080838360005b8381101561089c578082015181840152602081019050610881565b50505050905090810190601f1680156108c95780820380516001836020036101000a031916815260200191505b509550505050505060405180910390f35b6108e2611f6a565b6040518080602001828103825283818151815260200191508051906020019060200280838360005b8381101561092557808201518184015260208101905061090a565b505050509050019250505060405180910390f35b6109656004803603602081101561094f57600080fd5b8101908080359060200190929190505050611ffe565b604051808215151515815260200191505060405180910390f35b6109b56004803603604081101561099557600080fd5b81019080803590602001909291908035906020019092919050505061201e565b604051808581526020018473ffffffffffffffffffffffffffffffffffffffff1673ffffffffffffffffffffffffffffffffffffffff16815260200183815260200180602001828103825283818151815260200191508051906020019080838360005b83811015610a33578082015181840152602081019050610a18565b50505050905090810190601f168015610a605780820380516001836020036101000a031916815260200191505b509550505050505060405180910390f35b610a79612120565b6040518082815260200191505060405180910390f35b610ad160048036036020811015610aa557600080fd5b81019080803573ffffffffffffffffffffffffffffffffffffffff169060200190929190505050612126565b604051808215151515815260200191505060405180910390f35b6000806000606080610afb612146565b600360008881526020019081526020016000206040518060a0016040529081600082015481526020016001820160009054906101000a900473ffffffffffffffffffffffffffffffffffffffff1673ffffffffffffffffffffffffffffffffffffffff1673ffffffffffffffffffffffffffffffffffffffff16815260200160028201548152602001600382018054600181600116156101000203166002900480601f016020809104026020016040519081016040528092919081815260200182805460018160011615610100020316600290048015610c1c5780601f10610bf157610100808354040283529160200191610c1c565b820191906000526020600020905b815481529060010190602001808311610bff57829003601f168201915b5050505050815260200160048201805480602002602001604051908101604052809291908181526020018280548015610c7457602002820191906000526020600020905b815481526020019060010190808311610c60575b505050505081525050905080600001518160200151826040015183606001518460800151819150809050955095509550955095505091939590929450565b60068181548110610cbf57fe5b906000526020600020016000915054906101000a900473ffffffffffffffffffffffffffffffffffffffff1681565b606080826008805490501015610d8b57600880549050604051908082528060200260200182016040528015610d325781602001602082028038833980820191505090505b50905060008090505b600880549050811015610d855760088181548110610d5557fe5b9060005260206000200154828281518110610d6c57fe5b6020026020010181815250508080600101915050610d3b565b50610e0a565b82604051908082528060200260200182016040528015610dba5781602001602082028038833980820191505090505b50905060008090505b83811015610e085760088181548110610dd857fe5b9060005260206000200154828281518110610def57fe5b6020026020010181815250508080600101915050610dc3565b505b80915050919050565b60006020528160005260406000208181548110610e2c57fe5b90600052602060002001600091509150505481565b610e4a81611cec565b610ef8576000803373ffffffffffffffffffffffffffffffffffffffff1673ffffffffffffffffffffffffffffffffffffffff1681526020019081526020016000208190806001815401808255809150509060018203906000526020600020016000909192909190915055506001600082815260200190815260200160002060008154809291906001019190505550610ee16117ca565b60089080519060200190610ef692919061218b565b505b50565b6000825111610f72576040517f08c379a000000000000000000000000000000000000000000000000000000000815260040180806020018281038252601b8152602001807f54686520636f6e74656e742063616e6e6f7420626520656d707479000000000081525060200191505060405180910390fd5b610f7a612146565b6040518060a0016040528060095481526020013373ffffffffffffffffffffffffffffffffffffffff16815260200142815260200184815260200183815250905060008251141561121c57600260007f67656e6572616c00000000000000000000000000000000000000000000000000815260200190815260200160002081908060018154018082558091505090600182039060005260206000209060050201600090919290919091506000820151816000015560208201518160010160006101000a81548173ffffffffffffffffffffffffffffffffffffffff021916908373ffffffffffffffffffffffffffffffffffffffff16021790555060408201518160020155606082015181600301908051906020019061109b9291906121d8565b5060808201518160040190805190602001906110b8929190612258565b50505050600160007f67656e6572616c00000000000000000000000000000000000000000000000000815260200190815260200160002060008154809291906001019190505550600460007f67656e6572616c00000000000000000000000000000000000000000000000000815260200190815260200160002060009054906101000a900460ff166111d95760088060018154018082558091505090600182039060005260206000200160007f67656e6572616c00000000000000000000000000000000000000000000000000909190915055506001600460007f67656e6572616c00000000000000000000000000000000000000000000000000815260200190815260200160002060006101000a81548160ff0219169083151502179055505b7f67656e6572616c00000000000000000000000000000000000000000000000000816080015160008151811061120b57fe5b602002602001018181525050611411565b60008090505b825181101561140f576002600084838151811061123b57fe5b6020026020010151815260200190815260200160002082908060018154018082558091505090600182039060005260206000209060050201600090919290919091506000820151816000015560208201518160010160006101000a81548173ffffffffffffffffffffffffffffffffffffffff021916908373ffffffffffffffffffffffffffffffffffffffff1602179055506040820151816002015560608201518160030190805190602001906112f49291906121d8565b506080820151816004019080519060200190611311929190612258565b505050506001600084838151811061132557fe5b60200260200101518152602001908152602001600020600081548092919060010191905055506004600084838151811061135b57fe5b6020026020010151815260200190815260200160002060009054906101000a900460ff1661140257600883828151811061139157fe5b602002602001015190806001815401808255809150509060018203906000526020600020016000909192909190915055506001600460008584815181106113d457fe5b6020026020010151815260200190815260200160002060006101000a81548160ff0219169083151502179055505b8080600101915050611222565b505b6114196117ca565b6008908051906020019061142e92919061218b565b50806003600060095481526020019081526020016000206000820151816000015560208201518160010160006101000a81548173ffffffffffffffffffffffffffffffffffffffff021916908373ffffffffffffffffffffffffffffffffffffffff1602179055506040820151816002015560608201518160030190805190602001906114bc9291906121d8565b5060808201518160040190805190602001906114d9929190612258565b50905050600781908060018154018082558091505090600182039060005260206000209060050201600090919290919091506000820151816000015560208201518160010160006101000a81548173ffffffffffffffffffffffffffffffffffffffff021916908373ffffffffffffffffffffffffffffffffffffffff1602179055506040820151816002015560608201518160030190805190602001906115829291906121d8565b50608082015181600401908051906020019061159f929190612258565b50505050600560003373ffffffffffffffffffffffffffffffffffffffff1673ffffffffffffffffffffffffffffffffffffffff16815260200190815260200160002060009054906101000a900460ff166116b35760063390806001815401808255809150509060018203906000526020600020016000909192909190916101000a81548173ffffffffffffffffffffffffffffffffffffffff021916908373ffffffffffffffffffffffffffffffffffffffff160217905550506001600560003373ffffffffffffffffffffffffffffffffffffffff1673ffffffffffffffffffffffffffffffffffffffff16815260200190815260200160002060006101000a81548160ff0219169083151502179055505b423373ffffffffffffffffffffffffffffffffffffffff166009547fd83f181a6b772f04ee94aad728a7afa5b88dfc85b451eb72aa14c184025eff148686604051808060200180602001838103835285818151815260200191508051906020019080838360005b8381101561173557808201518184015260208101905061171a565b50505050905090810190601f1680156117625780820380516001836020036101000a031916815260200191505b50838103825284818151815260200191508051906020019060200280838360005b8381101561179e578082015181840152602081019050611783565b5050505090500194505050505060405180910390a4600960008154809291906001019190505550505050565b606080600880548060200260200160405190810160405280929190818152602001828054801561181957602002820191906000526020600020905b815481526020019060010190808311611805575b5050505050905060606008805490506040519080825280602002602001820160405280156118565781602001602082028038833980820191505090505b509050600080905060008090505b83518110156119815760006001820190505b845181101561193f576001600086838151811061188f57fe5b6020026020010151815260200190815260200160002054600160008785815181106118b657fe5b602002602001015181526020019081526020016000205410156119325760008583815181106118e157fe5b602002602001015190508582815181106118f757fe5b602002602001015186848151811061190b57fe5b6020026020010181815250508086838151811061192457fe5b602002602001018181525050505b8080600101915050611876565b5083818151811061194c57fe5b602002602001015183838151811061196057fe5b60200260200101818152505081806001019250508080600101915050611864565b5081935050505090565b6008818154811061199857fe5b906000526020600020016000915090505481565b60036020528060005260406000206000915090508060000154908060010160009054906101000a900473ffffffffffffffffffffffffffffffffffffffff1690806002015490806003018054600181600116156101000203166002900480601f016020809104026020016040519081016040528092919081815260200182805460018160011615610100020316600290048015611a8a5780601f10611a5f57610100808354040283529160200191611a8a565b820191906000526020600020905b815481529060010190602001808311611a6d57829003601f168201915b5050505050905084565b611a9d81611cec565b15611ce95760008090505b6000803373ffffffffffffffffffffffffffffffffffffffff1673ffffffffffffffffffffffffffffffffffffffff16815260200190815260200160002080549050811015611ce757816000803373ffffffffffffffffffffffffffffffffffffffff1673ffffffffffffffffffffffffffffffffffffffff1681526020019081526020016000208281548110611b3b57fe5b90600052602060002001541415611cda5760008060003373ffffffffffffffffffffffffffffffffffffffff1673ffffffffffffffffffffffffffffffffffffffff16815260200190815260200160002060016000803373ffffffffffffffffffffffffffffffffffffffff1673ffffffffffffffffffffffffffffffffffffffff168152602001908152602001600020805490500381548110611bdb57fe5b90600052602060002001549050806000803373ffffffffffffffffffffffffffffffffffffffff1673ffffffffffffffffffffffffffffffffffffffff1681526020019081526020016000208381548110611c3257fe5b90600052602060002001819055506000803373ffffffffffffffffffffffffffffffffffffffff1673ffffffffffffffffffffffffffffffffffffffff168152602001908152602001600020805480919060019003611c9191906122a5565b50600160008481526020019081526020016000206000815480929190600190039190505550611cbe6117ca565b60089080519060200190611cd392919061218b565b5050611ce7565b8080600101915050611aa8565b505b50565b600080600090505b6000803373ffffffffffffffffffffffffffffffffffffffff1673ffffffffffffffffffffffffffffffffffffffff16815260200190815260200160002080549050811015611daf57826000803373ffffffffffffffffffffffffffffffffffffffff1673ffffffffffffffffffffffffffffffffffffffff1681526020019081526020016000208281548110611d8757fe5b90600052602060002001541415611da2576001915050611db5565b8080600101915050611cf4565b50600090505b919050565b60608082604051908082528060200260200182016040528015611dec5781602001602082028038833980820191505090505b50905060008090505b83811015611e5257600260008681526020019081526020016000208181548110611e1b57fe5b906000526020600020906005020160000154828281518110611e3957fe5b6020026020010181815250508080600101915050611df5565b508091505092915050565b60016020528060005260406000206000915090505481565b60078181548110611e8257fe5b90600052602060002090600502016000915090508060000154908060010160009054906101000a900473ffffffffffffffffffffffffffffffffffffffff1690806002015490806003018054600181600116156101000203166002900480601f016020809104026020016040519081016040528092919081815260200182805460018160011615610100020316600290048015611f605780601f10611f3557610100808354040283529160200191611f60565b820191906000526020600020905b815481529060010190602001808311611f4357829003601f168201915b5050505050905084565b60606000803373ffffffffffffffffffffffffffffffffffffffff1673ffffffffffffffffffffffffffffffffffffffff168152602001908152602001600020805480602002602001604051908101604052809291908181526020018280548015611ff457602002820191906000526020600020905b815481526020019060010190808311611fe0575b5050505050905090565b60046020528060005260406000206000915054906101000a900460ff1681565b6002602052816000526040600020818154811061203757fe5b9060005260206000209060050201600091509150508060000154908060010160009054906101000a900473ffffffffffffffffffffffffffffffffffffffff1690806002015490806003018054600181600116156101000203166002900480601f0160208091040260200160405190810160405280929190818152602001828054600181600116156101000203166002900480156121165780601f106120eb57610100808354040283529160200191612116565b820191906000526020600020905b8154815290600101906020018083116120f957829003601f168201915b5050505050905084565b60095481565b60056020528060005260406000206000915054906101000a900460ff1681565b6040518060a0016040528060008152602001600073ffffffffffffffffffffffffffffffffffffffff1681526020016000815260200160608152602001606081525090565b8280548282559060005260206000209081019282156121c7579160200282015b828111156121c65782518255916020019190600101906121ab565b5b5090506121d491906122d1565b5090565b828054600181600116156101000203166002900490600052602060002090601f016020900481019282601f1061221957805160ff1916838001178555612247565b82800160010185558215612247579182015b8281111561224657825182559160200191906001019061222b565b5b50905061225491906122f6565b5090565b828054828255906000526020600020908101928215612294579160200282015b82811115612293578251825591602001919060010190612278565b5b5090506122a191906122d1565b5090565b8154818355818111156122cc578183600052602060002091820191016122cb91906122d1565b5b505050565b6122f391905b808211156122ef5760008160009055506001016122d7565b5090565b90565b61231891905b808211156123145760008160009055506001016122fc565b5090565b9056fea165627a7a723058204cdc94a3b7c4b00a23de59d07dc18a2b982ffc987e547089a1cdb9f606818df60029",
  "source": "// This is a social media smart contract that allows people to publish strings of text in short formats with a focus on hashtags so that they can follow, read and be in touch with the latest content regarding those hashtags. There will be a mapping os top hashtags. A struct for each piece of content with the date, author, content and array of hashtags. We want to avoid focusing on specific users that's why user accounts will be anonymous where addresses will the be the only identifiers.\r\n\r\npragma solidity ^0.5.0;\r\n\r\ncontract SocialMedia {\r\n    struct Content {\r\n        uint256 id;\r\n        address author;\r\n        uint256 date;\r\n        string content;\r\n        bytes32[] hashtags;\r\n    }\r\n\r\n    event ContentAdded(uint256 indexed id, address indexed author, uint256 indexed date, string content, bytes32[] hashtags);\r\n\r\n    mapping(address => bytes32[]) public subscribedHashtags;\r\n    mapping(bytes32 => uint256) public hashtagScore; // The number of times this hashtag has been used, used to sort the top hashtags\r\n    mapping(bytes32 => Content[]) public contentByHashtag;\r\n    mapping(uint256 => Content) public contentById;\r\n    mapping(bytes32 => bool) public doesHashtagExist;\r\n    mapping(address => bool) public doesUserExist;\r\n    address[] public users;\r\n    Content[] public contents;\r\n    bytes32[] public hashtags;\r\n    uint256 public latestContentId;\r\n\r\n    /// @notice To add new content to the social media dApp. If no hashtags are sent, the content is added to the #general hashtag list.\r\n    /// @param _content The string of content\r\n    /// @param _hashtags The hashtags used for that piece of content\r\n    function addContent(string memory _content, bytes32[] memory _hashtags) public {\r\n        require(bytes(_content).length > 0, 'The content cannot be empty');\r\n        Content memory newContent = Content(latestContentId, msg.sender, now, _content, _hashtags);\r\n        // If the user didn't specify any hashtags add the content to the #general hashtag\r\n        if(_hashtags.length == 0) {\r\n            contentByHashtag['general'].push(newContent);\r\n            hashtagScore['general']++;\r\n            if(!doesHashtagExist['general']) {\r\n                hashtags.push('general');\r\n                doesHashtagExist['general'] = true;\r\n            }\r\n            newContent.hashtags[0] = 'general';\r\n        } else {\r\n            for(uint256 i = 0; i < _hashtags.length; i++) {\r\n                contentByHashtag[_hashtags[i]].push(newContent);\r\n                hashtagScore[_hashtags[i]]++;\r\n                if(!doesHashtagExist[_hashtags[i]]) {\r\n                    hashtags.push(_hashtags[i]);\r\n                    doesHashtagExist[_hashtags[i]] = true;\r\n                }\r\n            }\r\n        }\r\n        hashtags = sortHashtagsByScore();\r\n        contentById[latestContentId] = newContent;\r\n        contents.push(newContent);\r\n        if(!doesUserExist[msg.sender]) {\r\n            users.push(msg.sender);\r\n            doesUserExist[msg.sender] = true;\r\n        }\r\n        emit ContentAdded(latestContentId, msg.sender, now, _content, _hashtags);\r\n        latestContentId++;\r\n    }\r\n\r\n    /// @notice To subscribe to a hashtag if you didn't do so already\r\n    /// @param _hashtag The hashtag name\r\n    function subscribeToHashtag(bytes32 _hashtag) public {\r\n        if(!checkExistingSubscription(_hashtag)) {\r\n            subscribedHashtags[msg.sender].push(_hashtag);\r\n            hashtagScore[_hashtag]++;\r\n            hashtags = sortHashtagsByScore();\r\n        }\r\n    }\r\n\r\n    /// @notice To unsubscribe to a hashtag if you are subscribed otherwise it won't do nothing\r\n    /// @param _hashtag The hashtag name\r\n    function unsubscribeToHashtag(bytes32 _hashtag) public {\r\n        if(checkExistingSubscription(_hashtag)) {\r\n            for(uint256 i = 0; i < subscribedHashtags[msg.sender].length; i++) {\r\n                if(subscribedHashtags[msg.sender][i] == _hashtag) {\r\n                    bytes32 lastElement = subscribedHashtags[msg.sender][subscribedHashtags[msg.sender].length - 1];\r\n                    subscribedHashtags[msg.sender][i] = lastElement;\r\n                    subscribedHashtags[msg.sender].length--; // Reduce the array to remove empty elements\r\n                    hashtagScore[_hashtag]--;\r\n                    hashtags = sortHashtagsByScore();\r\n                    break;\r\n                }\r\n            }\r\n        }\r\n    }\r\n\r\n    /// @notice To get the top hashtags\r\n    /// @param _amount How many top hashtags to get in order, for instance the top 20 hashtags\r\n    /// @return bytes32[] Returns the names of the hashtags\r\n    function getTopHashtags(uint256 _amount) public view returns(bytes32[] memory) {\r\n        bytes32[] memory result;\r\n        if(hashtags.length < _amount) {\r\n            result = new bytes32[](hashtags.length);\r\n            for(uint256 i = 0; i < hashtags.length; i++) {\r\n                result[i] = hashtags[i];\r\n            }\r\n        } else {\r\n            result = new bytes32[](_amount);\r\n            for(uint256 i = 0; i < _amount; i++) {\r\n                result[i] = hashtags[i];\r\n            }\r\n        }\r\n        return result;\r\n    }\r\n\r\n    /// @notice To get the followed hashtag names for this msg.sender\r\n    /// @return bytes32[] The hashtags followed by this user\r\n    function getFollowedHashtags() public view returns(bytes32[] memory) {\r\n        return subscribedHashtags[msg.sender];\r\n    }\r\n\r\n    /// @notice To get the contents for a particular hashtag. It returns the ids because we can't return arrays of strings and we can't return structs so the user has to manually make a new request for each piece of content using the function below.\r\n    /// @param _hashtag The hashtag from which get content\r\n    /// @param _amount The quantity of contents to get for instance, 50 pieces of content for that hashtag\r\n    /// @return uint256[] Returns the ids of the contents so that you can get each piece independently with a new request since you can't return arrays of strings\r\n    function getContentIdsByHashtag(bytes32 _hashtag, uint256 _amount) public view returns(uint256[] memory) {\r\n        uint256[] memory ids = new uint256[](_amount);\r\n        for(uint256 i = 0; i < _amount; i++) {\r\n            ids[i] = contentByHashtag[_hashtag][i].id;\r\n        }\r\n        return ids;\r\n    }\r\n\r\n    /// @notice Returns the data for a particular content id\r\n    /// @param _id The id of the content\r\n    /// @return Returns the id, author, date, content and hashtags for that piece of content\r\n    function getContentById(uint256 _id) public view returns(uint256, address, uint256, string memory, bytes32[] memory) {\r\n        Content memory c = contentById[_id];\r\n        return (c.id, c.author, c.date, c.content, c.hashtags);\r\n    }\r\n\r\n    /// @notice Sorts the hashtags given their hashtag score\r\n    /// @return bytes32[] Returns the sorted array of hashtags\r\n    function sortHashtagsByScore() public view returns(bytes32[] memory) {\r\n        bytes32[] memory _hashtags = hashtags;\r\n        bytes32[] memory sortedHashtags = new bytes32[](hashtags.length);\r\n        uint256 lastId = 0;\r\n        for(uint256 i = 0; i < _hashtags.length; i++) {\r\n            for(uint j = i+1; j < _hashtags.length; j++) {\r\n                // If it's a buy order, sort from lowest to highest since we want the lowest prices first\r\n                if(hashtagScore[_hashtags[i]] < hashtagScore[_hashtags[j]]) {\r\n                    bytes32 temporaryhashtag = _hashtags[i];\r\n                    _hashtags[i] = _hashtags[j];\r\n                    _hashtags[j] = temporaryhashtag;\r\n                }\r\n            }\r\n            sortedHashtags[lastId] = _hashtags[i];\r\n            lastId++;\r\n        }\r\n        return sortedHashtags;\r\n    }\r\n\r\n    /// @notice To check if the use is already subscribed to a hashtag\r\n    /// @return bool If you are subscribed to that hashtag or not\r\n    function checkExistingSubscription(bytes32 _hashtag) public view returns(bool) {\r\n        for(uint256 i = 0; i < subscribedHashtags[msg.sender].length; i++) {\r\n            if(subscribedHashtags[msg.sender][i] == _hashtag) return true;\r\n        }\r\n        return false;\r\n    }\r\n}\r\n",
  "sourcePath": "C:/Users/merun/Desktop/projects/social-media-dapp/contracts/SocialMedia.sol",
  "compiler": {
    "name": "solc",
    "version": "0.5.8+commit.23d335f2.Emscripten.clang"
  },
  "schemaVersion": "3.0.11",
  "updatedAt": "2019-09-01T13:49:17.525Z",
  "devdoc": {
    "methods": {
      "addContent(string,bytes32[])": {
        "params": {
          "_hashtags": "The hashtags used for that piece of content"
        }
      },
      "checkExistingSubscription(bytes32)": {
        "return": "bool If you are subscribed to that hashtag or not"
      },
      "getContentById(uint256)": {
        "return": "Returns the id, author, date, content and hashtags for that piece of content"
      },
      "getContentIdsByHashtag(bytes32,uint256)": {
        "return": "uint256[] Returns the ids of the contents so that you can get each piece independently with a new request since you can't return arrays of strings"
      },
      "getFollowedHashtags()": {
        "return": "bytes32[] The hashtags followed by this user"
      },
      "getTopHashtags(uint256)": {
        "return": "bytes32[] Returns the names of the hashtags"
      },
      "sortHashtagsByScore()": {
        "return": "bytes32[] Returns the sorted array of hashtags"
      },
      "subscribeToHashtag(bytes32)": {
        "params": {
          "_hashtag": "The hashtag name"
        }
      },
      "unsubscribeToHashtag(bytes32)": {
        "params": {
          "_hashtag": "The hashtag name"
        }
      }
    }
  },
  "userdoc": {
    "methods": {}
  }
}